{
  "address": "0xA0896596f932A51fF82a32927778dD820B4F0F15",
  "abi": [
    {
      "inputs": [
        {
          "internalType": "address",
          "name": "vrfCoordinator",
          "type": "address"
        },
        {
          "internalType": "uint256",
          "name": "entranceFee",
          "type": "uint256"
        },
        {
          "internalType": "bytes32",
          "name": "gasLane",
          "type": "bytes32"
        },
        {
          "internalType": "uint64",
          "name": "subscription_Id",
          "type": "uint64"
        },
        {
          "internalType": "uint32",
          "name": "callbackGasLimit",
          "type": "uint32"
        },
        {
          "internalType": "uint256",
          "name": "interval",
          "type": "uint256"
        }
      ],
      "stateMutability": "nonpayable",
      "type": "constructor"
    },
    {
      "inputs": [
        {
          "internalType": "address",
          "name": "have",
          "type": "address"
        },
        {
          "internalType": "address",
          "name": "want",
          "type": "address"
        }
      ],
      "name": "OnlyCoordinatorCanFulfill",
      "type": "error"
    },
    {
      "inputs": [],
      "name": "Raffle__NotEnoughETHEntered",
      "type": "error"
    },
    {
      "inputs": [],
      "name": "Raffle__NotOpen",
      "type": "error"
    },
    {
      "inputs": [],
      "name": "Raffle__TransferFailed",
      "type": "error"
    },
    {
      "inputs": [
        {
          "internalType": "uint256",
          "name": "currentBalance",
          "type": "uint256"
        },
        {
          "internalType": "uint256",
          "name": "numPlayers",
          "type": "uint256"
        },
        {
          "internalType": "uint256",
          "name": "raffleState",
          "type": "uint256"
        }
      ],
      "name": "Raffle__UpkeepNotNeeded",
      "type": "error"
    },
    {
      "anonymous": false,
      "inputs": [
        {
          "indexed": true,
          "internalType": "uint256",
          "name": "requestId",
          "type": "uint256"
        }
      ],
      "name": "RequestedRaffleWinner",
      "type": "event"
    },
    {
      "anonymous": false,
      "inputs": [
        {
          "indexed": true,
          "internalType": "address",
          "name": "winner",
          "type": "address"
        }
      ],
      "name": "WinnerPicked",
      "type": "event"
    },
    {
      "anonymous": false,
      "inputs": [
        {
          "indexed": true,
          "internalType": "address",
          "name": "player",
          "type": "address"
        }
      ],
      "name": "raffleEnter",
      "type": "event"
    },
    {
      "inputs": [
        {
          "internalType": "bytes",
          "name": "",
          "type": "bytes"
        }
      ],
      "name": "checkUpkeep",
      "outputs": [
        {
          "internalType": "bool",
          "name": "upkeepNeeded",
          "type": "bool"
        },
        {
          "internalType": "bytes",
          "name": "",
          "type": "bytes"
        }
      ],
      "stateMutability": "nonpayable",
      "type": "function"
    },
    {
      "inputs": [],
      "name": "enterRaffle",
      "outputs": [],
      "stateMutability": "payable",
      "type": "function"
    },
    {
      "inputs": [],
      "name": "getEntranceFee",
      "outputs": [
        {
          "internalType": "uint256",
          "name": "",
          "type": "uint256"
        }
      ],
      "stateMutability": "view",
      "type": "function"
    },
    {
      "inputs": [],
      "name": "getInterval",
      "outputs": [
        {
          "internalType": "uint256",
          "name": "",
          "type": "uint256"
        }
      ],
      "stateMutability": "view",
      "type": "function"
    },
    {
      "inputs": [],
      "name": "getLatestTimeStamp",
      "outputs": [
        {
          "internalType": "uint256",
          "name": "",
          "type": "uint256"
        }
      ],
      "stateMutability": "view",
      "type": "function"
    },
    {
      "inputs": [],
      "name": "getNumWords",
      "outputs": [
        {
          "internalType": "uint32",
          "name": "",
          "type": "uint32"
        }
      ],
      "stateMutability": "pure",
      "type": "function"
    },
    {
      "inputs": [],
      "name": "getNumberOfPlayers",
      "outputs": [
        {
          "internalType": "uint256",
          "name": "",
          "type": "uint256"
        }
      ],
      "stateMutability": "view",
      "type": "function"
    },
    {
      "inputs": [
        {
          "internalType": "uint256",
          "name": "index",
          "type": "uint256"
        }
      ],
      "name": "getPlayers",
      "outputs": [
        {
          "internalType": "address",
          "name": "",
          "type": "address"
        }
      ],
      "stateMutability": "view",
      "type": "function"
    },
    {
      "inputs": [],
      "name": "getRaffleState",
      "outputs": [
        {
          "internalType": "uint256",
          "name": "",
          "type": "uint256"
        }
      ],
      "stateMutability": "view",
      "type": "function"
    },
    {
      "inputs": [],
      "name": "getRecentWinner",
      "outputs": [
        {
          "internalType": "address",
          "name": "",
          "type": "address"
        }
      ],
      "stateMutability": "view",
      "type": "function"
    },
    {
      "inputs": [],
      "name": "getRequestConfirmations",
      "outputs": [
        {
          "internalType": "uint16",
          "name": "",
          "type": "uint16"
        }
      ],
      "stateMutability": "pure",
      "type": "function"
    },
    {
      "inputs": [
        {
          "internalType": "bytes",
          "name": "",
          "type": "bytes"
        }
      ],
      "name": "performUpkeep",
      "outputs": [],
      "stateMutability": "nonpayable",
      "type": "function"
    },
    {
      "inputs": [
        {
          "internalType": "uint256",
          "name": "requestId",
          "type": "uint256"
        },
        {
          "internalType": "uint256[]",
          "name": "randomWords",
          "type": "uint256[]"
        }
      ],
      "name": "rawFulfillRandomWords",
      "outputs": [],
      "stateMutability": "nonpayable",
      "type": "function"
    }
  ],
  "transactionHash": "0x17377c115fbecab9654fb5e5ef9085c365f205138f455ffaaf68377680ff9cd5",
  "args": [
    "0x2Ca8E0C643bDe4C2E08ab1fA0da3401AdAD7734D",
    "10000000000000000",
    "0x79d3d8832d904592c0bf9818b621522c988bb8b0c05cdc3b15aea1b6e8db0c15",
    "2590",
    "500000",
    "30"
  ],
  "numDeployments": 1,
  "solcInputHash": "d14d0bf4bc495751d71d514b3dcb3a2d",
  "bytecode": "0x6101606040523480156200001257600080fd5b50604051620017dd380380620017dd833981810160405281019062000038919062000294565b858073ffffffffffffffffffffffffffffffffffffffff1660808173ffffffffffffffffffffffffffffffffffffffff1681525050508460a081815250508573ffffffffffffffffffffffffffffffffffffffff1660c08173ffffffffffffffffffffffffffffffffffffffff16815250508360e081815250508267ffffffffffffffff166101008167ffffffffffffffff16815250508163ffffffff166101208163ffffffff16815250508061014081815250506000600160146101000a81548160ff0219169083600181111562000116576200011562000330565b5b0217905550426002819055505050505050506200035f565b600080fd5b600073ffffffffffffffffffffffffffffffffffffffff82169050919050565b6000620001608262000133565b9050919050565b620001728162000153565b81146200017e57600080fd5b50565b600081519050620001928162000167565b92915050565b6000819050919050565b620001ad8162000198565b8114620001b957600080fd5b50565b600081519050620001cd81620001a2565b92915050565b6000819050919050565b620001e881620001d3565b8114620001f457600080fd5b50565b6000815190506200020881620001dd565b92915050565b600067ffffffffffffffff82169050919050565b6200022d816200020e565b81146200023957600080fd5b50565b6000815190506200024d8162000222565b92915050565b600063ffffffff82169050919050565b6200026e8162000253565b81146200027a57600080fd5b50565b6000815190506200028e8162000263565b92915050565b60008060008060008060c08789031215620002b457620002b36200012e565b5b6000620002c489828a0162000181565b9650506020620002d789828a01620001bc565b9550506040620002ea89828a01620001f7565b9450506060620002fd89828a016200023c565b93505060806200031089828a016200027d565b92505060a06200032389828a01620001bc565b9150509295509295509295565b7f4e487b7100000000000000000000000000000000000000000000000000000000600052602160045260246000fd5b60805160a05160c05160e05161010051610120516101405161140e620003cf6000396000818161083601526108a4015260006106b70152600061069401526000610673015260006106370152600081816102fa0152610409015260008181610349015261039d015261140e6000f3fe6080604052600436106100c25760003560e01c8063460e20491161007f5780635f1b0fd8116100595780635f1b0fd8146102375780636e04ff0d1461026257806391ad27b4146102a0578063fd6673f5146102cb576100c2565b8063460e2049146101a4578063473f1ddc146101e157806353a2c19a1461020c576100c2565b806309bc33a7146100c7578063115cbaf5146100f25780631fe543e31461011d5780632cfcc53914610146578063320229eb146101505780634585e33b1461017b575b600080fd5b3480156100d357600080fd5b506100dc6102f6565b6040516100e99190610bc5565b60405180910390f35b3480156100fe57600080fd5b5061010761031e565b6040516101149190610bc5565b60405180910390f35b34801561012957600080fd5b50610144600480360381019061013f9190610d79565b610347565b005b61014e610407565b005b34801561015c57600080fd5b50610165610576565b6040516101729190610bc5565b60405180910390f35b34801561018757600080fd5b506101a2600480360381019061019d9190610e30565b610580565b005b3480156101b057600080fd5b506101cb60048036038101906101c69190610e7d565b610770565b6040516101d89190610eeb565b60405180910390f35b3480156101ed57600080fd5b506101f66107b7565b6040516102039190610eeb565b60405180910390f35b34801561021857600080fd5b506102216107e1565b60405161022e9190610f25565b60405180910390f35b34801561024357600080fd5b5061024c6107ea565b6040516102599190610f5d565b60405180910390f35b34801561026e57600080fd5b506102896004803603810190610284919061102d565b6107f3565b604051610297929190611110565b60405180910390f35b3480156102ac57600080fd5b506102b56108a0565b6040516102c29190610bc5565b60405180910390f35b3480156102d757600080fd5b506102e06108c8565b6040516102ed9190610bc5565b60405180910390f35b60007f0000000000000000000000000000000000000000000000000000000000000000905090565b6000600160149054906101000a900460ff16600181111561034257610341611140565b5b905090565b7f000000000000000000000000000000000000000000000000000000000000000073ffffffffffffffffffffffffffffffffffffffff163373ffffffffffffffffffffffffffffffffffffffff16146103f957337f00000000000000000000000000000000000000000000000000000000000000006040517f1cf993f40000000000000000000000000000000000000000000000000000000081526004016103f092919061116f565b60405180910390fd5b61040382826108d4565b5050565b7f0000000000000000000000000000000000000000000000000000000000000000341015610461576040517fbd4e069500000000000000000000000000000000000000000000000000000000815260040160405180910390fd5b6000600181111561047557610474611140565b5b600160149054906101000a900460ff16600181111561049757610496611140565b5b146104ce576040517f1425571c00000000000000000000000000000000000000000000000000000000815260040160405180910390fd5b6000339080600181540180825580915050600190039060005260206000200160009091909190916101000a81548173ffffffffffffffffffffffffffffffffffffffff021916908373ffffffffffffffffffffffffffffffffffffffff1602179055503373ffffffffffffffffffffffffffffffffffffffff167f742d070bf0f3edace132a9da8ba725e8cf99c478869cee7f673ed6085e2f8e6460405160405180910390a2565b6000600254905090565b600061059a604051806020016040528060008152506107f3565b509050806106095747600080549050600160149054906101000a900460ff1660018111156105cb576105ca611140565b5b6040517f584327aa00000000000000000000000000000000000000000000000000000000815260040161060093929190611198565b60405180910390fd5b60018060146101000a81548160ff0219169083600181111561062e5761062d611140565b5b021790555060007f000000000000000000000000000000000000000000000000000000000000000073ffffffffffffffffffffffffffffffffffffffff16635d3b1d307f00000000000000000000000000000000000000000000000000000000000000007f000000000000000000000000000000000000000000000000000000000000000060037f000000000000000000000000000000000000000000000000000000000000000060016040518663ffffffff1660e01b81526004016106f895949392919061120b565b6020604051808303816000875af1158015610717573d6000803e3d6000fd5b505050506040513d601f19601f8201168201806040525081019061073b9190611273565b9050807fcd6e45c8998311cab7e9d4385596cac867e20a0587194b954fa3a731c93ce78b60405160405180910390a250505050565b6000808281548110610785576107846112a0565b5b9060005260206000200160009054906101000a900473ffffffffffffffffffffffffffffffffffffffff169050919050565b6000600160009054906101000a900473ffffffffffffffffffffffffffffffffffffffff16905090565b60006001905090565b60006003905090565b600060606000600160149054906101000a900460ff16600181111561081b5761081a611140565b5b6000600181111561082f5761082e611140565b5b14905060007f00000000000000000000000000000000000000000000000000000000000000006002544261086391906112fe565b119050600080600080549050119050600080471190508380156108835750825b801561088c5750805b80156108955750815b955050505050915091565b60007f0000000000000000000000000000000000000000000000000000000000000000905090565b60008080549050905090565b60008080549050826000815181106108ef576108ee6112a0565b5b60200260200101516109019190611361565b90506000808281548110610918576109176112a0565b5b9060005260206000200160009054906101000a900473ffffffffffffffffffffffffffffffffffffffff16905080600160006101000a81548173ffffffffffffffffffffffffffffffffffffffff021916908373ffffffffffffffffffffffffffffffffffffffff1602179055506000600160146101000a81548160ff021916908360018111156109ac576109ab611140565b5b0217905550600067ffffffffffffffff8111156109cc576109cb610c36565b5b6040519080825280602002602001820160405280156109fa5781602001602082028036833780820191505090505b5060009080519060200190610a10929190610b05565b504260028190555060008173ffffffffffffffffffffffffffffffffffffffff1647604051610a3e906113c3565b60006040518083038185875af1925050503d8060008114610a7b576040519150601f19603f3d011682016040523d82523d6000602084013e610a80565b606091505b5050905080610abb576040517fa1d04b3900000000000000000000000000000000000000000000000000000000815260040160405180910390fd5b8173ffffffffffffffffffffffffffffffffffffffff167f5b690ec4a06fe979403046eaeea5b3ce38524683c3001f662c8b5a829632f7df60405160405180910390a25050505050565b828054828255906000526020600020908101928215610b7e579160200282015b82811115610b7d5782518260006101000a81548173ffffffffffffffffffffffffffffffffffffffff021916908373ffffffffffffffffffffffffffffffffffffffff16021790555091602001919060010190610b25565b5b509050610b8b9190610b8f565b5090565b5b80821115610ba8576000816000905550600101610b90565b5090565b6000819050919050565b610bbf81610bac565b82525050565b6000602082019050610bda6000830184610bb6565b92915050565b6000604051905090565b600080fd5b600080fd5b610bfd81610bac565b8114610c0857600080fd5b50565b600081359050610c1a81610bf4565b92915050565b600080fd5b6000601f19601f8301169050919050565b7f4e487b7100000000000000000000000000000000000000000000000000000000600052604160045260246000fd5b610c6e82610c25565b810181811067ffffffffffffffff82111715610c8d57610c8c610c36565b5b80604052505050565b6000610ca0610be0565b9050610cac8282610c65565b919050565b600067ffffffffffffffff821115610ccc57610ccb610c36565b5b602082029050602081019050919050565b600080fd5b6000610cf5610cf084610cb1565b610c96565b90508083825260208201905060208402830185811115610d1857610d17610cdd565b5b835b81811015610d415780610d2d8882610c0b565b845260208401935050602081019050610d1a565b5050509392505050565b600082601f830112610d6057610d5f610c20565b5b8135610d70848260208601610ce2565b91505092915050565b60008060408385031215610d9057610d8f610bea565b5b6000610d9e85828601610c0b565b925050602083013567ffffffffffffffff811115610dbf57610dbe610bef565b5b610dcb85828601610d4b565b9150509250929050565b600080fd5b60008083601f840112610df057610def610c20565b5b8235905067ffffffffffffffff811115610e0d57610e0c610dd5565b5b602083019150836001820283011115610e2957610e28610cdd565b5b9250929050565b60008060208385031215610e4757610e46610bea565b5b600083013567ffffffffffffffff811115610e6557610e64610bef565b5b610e7185828601610dda565b92509250509250929050565b600060208284031215610e9357610e92610bea565b5b6000610ea184828501610c0b565b91505092915050565b600073ffffffffffffffffffffffffffffffffffffffff82169050919050565b6000610ed582610eaa565b9050919050565b610ee581610eca565b82525050565b6000602082019050610f006000830184610edc565b92915050565b600063ffffffff82169050919050565b610f1f81610f06565b82525050565b6000602082019050610f3a6000830184610f16565b92915050565b600061ffff82169050919050565b610f5781610f40565b82525050565b6000602082019050610f726000830184610f4e565b92915050565b600080fd5b600067ffffffffffffffff821115610f9857610f97610c36565b5b610fa182610c25565b9050602081019050919050565b82818337600083830152505050565b6000610fd0610fcb84610f7d565b610c96565b905082815260208101848484011115610fec57610feb610f78565b5b610ff7848285610fae565b509392505050565b600082601f83011261101457611013610c20565b5b8135611024848260208601610fbd565b91505092915050565b60006020828403121561104357611042610bea565b5b600082013567ffffffffffffffff81111561106157611060610bef565b5b61106d84828501610fff565b91505092915050565b60008115159050919050565b61108b81611076565b82525050565b600081519050919050565b600082825260208201905092915050565b60005b838110156110cb5780820151818401526020810190506110b0565b60008484015250505050565b60006110e282611091565b6110ec818561109c565b93506110fc8185602086016110ad565b61110581610c25565b840191505092915050565b60006040820190506111256000830185611082565b818103602083015261113781846110d7565b90509392505050565b7f4e487b7100000000000000000000000000000000000000000000000000000000600052602160045260246000fd5b60006040820190506111846000830185610edc565b6111916020830184610edc565b9392505050565b60006060820190506111ad6000830186610bb6565b6111ba6020830185610bb6565b6111c76040830184610bb6565b949350505050565b6000819050919050565b6111e2816111cf565b82525050565b600067ffffffffffffffff82169050919050565b611205816111e8565b82525050565b600060a08201905061122060008301886111d9565b61122d60208301876111fc565b61123a6040830186610f4e565b6112476060830185610f16565b6112546080830184610f16565b9695505050505050565b60008151905061126d81610bf4565b92915050565b60006020828403121561128957611288610bea565b5b60006112978482850161125e565b91505092915050565b7f4e487b7100000000000000000000000000000000000000000000000000000000600052603260045260246000fd5b7f4e487b7100000000000000000000000000000000000000000000000000000000600052601160045260246000fd5b600061130982610bac565b915061131483610bac565b925082820390508181111561132c5761132b6112cf565b5b92915050565b7f4e487b7100000000000000000000000000000000000000000000000000000000600052601260045260246000fd5b600061136c82610bac565b915061137783610bac565b92508261138757611386611332565b5b828206905092915050565b600081905092915050565b50565b60006113ad600083611392565b91506113b88261139d565b600082019050919050565b60006113ce826113a0565b915081905091905056fea264697066735822122007a04ca7c1337aad72fc4de35be5ff3633567db5d2d4f9483be3baca3168c3c364736f6c63430008110033",
  "devdoc": {
    "author": "Aakash Malik",
    "details": "This implements ChainLink VRF v2 and Chainlink automation",
    "kind": "dev",
    "methods": {
      "checkUpkeep(bytes)": {
        "details": "checkUpkeep is used to make the contract compatible with Chainlink automation. It checks if it's time to perform the Upkeep with performUpkeep function or in this case requesting winner This is the function Chainlink automation nodes call they look for the `upkeepNeeded` to return true The Following should have passed for it to be true 1. Our time interval should have passed. 2. Lottery should have atleast 1 player and some ETH 3. Our subscription is funded with LINK 4. The Lottery should be in an \"open\" state"
      }
    },
    "title": "A sample Raffle Contract",
    "version": 1
  },
  "userdoc": {
    "kind": "user",
    "methods": {},
    "notice": "This contract is for creating an untamperable decentralised smart contract",
    "version": 1
  },
  "storageLayout": {
    "storage": [
      {
        "astId": 1162,
        "contract": "contracts/Raffle.sol:Raffle",
        "label": "s_players",
        "offset": 0,
        "slot": "0",
        "type": "t_array(t_address_payable)dyn_storage"
      },
      {
        "astId": 1179,
        "contract": "contracts/Raffle.sol:Raffle",
        "label": "s_recentWinner",
        "offset": 0,
        "slot": "1",
        "type": "t_address_payable"
      },
      {
        "astId": 1182,
        "contract": "contracts/Raffle.sol:Raffle",
        "label": "s_raffleState",
        "offset": 20,
        "slot": "1",
        "type": "t_enum(RaffleState)1157"
      },
      {
        "astId": 1184,
        "contract": "contracts/Raffle.sol:Raffle",
        "label": "s_lastTimeStamp",
        "offset": 0,
        "slot": "2",
        "type": "t_uint256"
      }
    ],
    "types": {
      "t_address_payable": {
        "encoding": "inplace",
        "label": "address payable",
        "numberOfBytes": "20"
      },
      "t_array(t_address_payable)dyn_storage": {
        "base": "t_address_payable",
        "encoding": "dynamic_array",
        "label": "address payable[]",
        "numberOfBytes": "32"
      },
      "t_enum(RaffleState)1157": {
        "encoding": "inplace",
        "label": "enum Raffle.RaffleState",
        "numberOfBytes": "1"
      },
      "t_uint256": {
        "encoding": "inplace",
        "label": "uint256",
        "numberOfBytes": "32"
      }
    }
  }
}